{
  "contractName": "BSCBridge",
  "abi": [
    {
      "inputs": [
        {
          "internalType": "address",
          "name": "_token",
          "type": "address"
        }
      ],
      "stateMutability": "nonpayable",
      "type": "constructor"
    },
    {
      "anonymous": false,
      "inputs": [
        {
          "indexed": true,
          "internalType": "address",
          "name": "from",
          "type": "address"
        },
        {
          "indexed": false,
          "internalType": "address",
          "name": "to",
          "type": "address"
        },
        {
          "indexed": true,
          "internalType": "uint256",
          "name": "amount",
          "type": "uint256"
        },
        {
          "indexed": false,
          "internalType": "uint256",
          "name": "date",
          "type": "uint256"
        },
        {
          "indexed": false,
          "internalType": "uint256",
          "name": "nonce",
          "type": "uint256"
        },
        {
          "indexed": false,
          "internalType": "bytes",
          "name": "signature",
          "type": "bytes"
        },
        {
          "indexed": true,
          "internalType": "enum Bridge.Type",
          "name": "step",
          "type": "uint8"
        }
      ],
      "name": "Transfer",
      "type": "event"
    },
    {
      "inputs": [
        {
          "internalType": "address",
          "name": "to",
          "type": "address"
        },
        {
          "internalType": "uint256",
          "name": "amount",
          "type": "uint256"
        },
        {
          "internalType": "bytes",
          "name": "signature",
          "type": "bytes"
        }
      ],
      "name": "burn",
      "outputs": [],
      "stateMutability": "nonpayable",
      "type": "function"
    },
    {
      "inputs": [
        {
          "internalType": "address",
          "name": "",
          "type": "address"
        },
        {
          "internalType": "uint256",
          "name": "",
          "type": "uint256"
        }
      ],
      "name": "hasProcessed",
      "outputs": [
        {
          "internalType": "bool",
          "name": "",
          "type": "bool"
        }
      ],
      "stateMutability": "view",
      "type": "function",
      "constant": true
    },
    {
      "inputs": [
        {
          "internalType": "address",
          "name": "from",
          "type": "address"
        },
        {
          "internalType": "address",
          "name": "to",
          "type": "address"
        },
        {
          "internalType": "uint256",
          "name": "amount",
          "type": "uint256"
        },
        {
          "internalType": "uint256",
          "name": "nonce",
          "type": "uint256"
        },
        {
          "internalType": "bytes",
          "name": "signature",
          "type": "bytes"
        }
      ],
      "name": "mint",
      "outputs": [],
      "stateMutability": "nonpayable",
      "type": "function"
    },
    {
      "inputs": [],
      "name": "token",
      "outputs": [
        {
          "internalType": "contract Token",
          "name": "",
          "type": "address"
        }
      ],
      "stateMutability": "view",
      "type": "function",
      "constant": true
    },
    {
      "inputs": [
        {
          "internalType": "address",
          "name": "",
          "type": "address"
        }
      ],
      "name": "transferCount",
      "outputs": [
        {
          "internalType": "uint256",
          "name": "",
          "type": "uint256"
        }
      ],
      "stateMutability": "view",
      "type": "function",
      "constant": true
    }
  ],
  "bytecode": "0x60806040523480156200001157600080fd5b5060405162001487380380620014878339818101604052810190620000379190620000ea565b80806000806101000a81548173ffffffffffffffffffffffffffffffffffffffff021916908373ffffffffffffffffffffffffffffffffffffffff16021790555050506200011c565b600080fd5b600073ffffffffffffffffffffffffffffffffffffffff82169050919050565b6000620000b28262000085565b9050919050565b620000c481620000a5565b8114620000d057600080fd5b50565b600081519050620000e481620000b9565b92915050565b60006020828403121562000103576200010262000080565b5b60006200011384828501620000d3565b91505092915050565b61135b806200012c6000396000f3fe608060405234801561001057600080fd5b50600436106100575760003560e01c80632dc74c201461005c5780633dc876ca1461008c57806344d17187146100bc57806352555702146100d8578063fc0c546a146100f4575b600080fd5b61007660048036038101906100719190610a66565b610112565b6040516100839190610aac565b60405180910390f35b6100a660048036038101906100a19190610af3565b61012a565b6040516100b39190610b4e565b60405180910390f35b6100d660048036038101906100d19190610bce565b610159565b005b6100f260048036038101906100ed9190610c42565b610325565b005b6100fc6105d0565b6040516101099190610d3b565b60405180910390f35b60026020528060005260406000206000915090505481565b60016020528160005260406000206020528060005260406000206000915091509054906101000a900460ff1681565b6001600260003373ffffffffffffffffffffffffffffffffffffffff1673ffffffffffffffffffffffffffffffffffffffff168152602001908152602001600020546101a59190610d85565b600260003373ffffffffffffffffffffffffffffffffffffffff1673ffffffffffffffffffffffffffffffffffffffff1681526020019081526020016000208190555060008054906101000a900473ffffffffffffffffffffffffffffffffffffffff1673ffffffffffffffffffffffffffffffffffffffff16639dc29fac33856040518363ffffffff1660e01b8152600401610243929190610dea565b600060405180830381600087803b15801561025d57600080fd5b505af1158015610271573d6000803e3d6000fd5b505050506000600181111561028957610288610e13565b5b833373ffffffffffffffffffffffffffffffffffffffff167fce5a9b86edd3b998c3948a7934c7ecf7dba73c4c5bcf56cf576bca4aa2beeb308742600260003373ffffffffffffffffffffffffffffffffffffffff1673ffffffffffffffffffffffffffffffffffffffff168152602001908152602001600020548888604051610317959493929190610ea0565b60405180910390a450505050565b600085858560405160200161033c93929190610f57565b604051602081830303815290604052805190602001209050600061035f826105f4565b905060006103b18286868080601f016020809104026020016040519081016040528093929190818152602001838380828437600081840152601f19601f82011690508083019250505050505050610624565b90508873ffffffffffffffffffffffffffffffffffffffff168173ffffffffffffffffffffffffffffffffffffffff1614610421576040517f08c379a000000000000000000000000000000000000000000000000000000000815260040161041890610ff1565b60405180910390fd5b6000600260008a73ffffffffffffffffffffffffffffffffffffffff1673ffffffffffffffffffffffffffffffffffffffff16815260200190815260200160002054905060018060008b73ffffffffffffffffffffffffffffffffffffffff1673ffffffffffffffffffffffffffffffffffffffff168152602001908152602001600020600083815260200190815260200160002060006101000a81548160ff02191690831515021790555060008054906101000a900473ffffffffffffffffffffffffffffffffffffffff1673ffffffffffffffffffffffffffffffffffffffff166340c10f198a8a6040518363ffffffff1660e01b8152600401610528929190610dea565b600060405180830381600087803b15801561054257600080fd5b505af1158015610556573d6000803e3d6000fd5b5050505060018081111561056d5761056c610e13565b5b888b73ffffffffffffffffffffffffffffffffffffffff167fce5a9b86edd3b998c3948a7934c7ecf7dba73c4c5bcf56cf576bca4aa2beeb308c428c8c8c6040516105bc959493929190610ea0565b60405180910390a450505050505050505050565b60008054906101000a900473ffffffffffffffffffffffffffffffffffffffff1681565b6000816040516020016106079190611093565b604051602081830303815290604052805190602001209050919050565b6000806000610633858561064b565b91509150610640816106ce565b819250505092915050565b60008060418351141561068d5760008060006020860151925060408601519150606086015160001a9050610681878285856108a3565b945094505050506106c7565b6040835114156106be5760008060208501519150604085015190506106b38683836109b0565b9350935050506106c7565b60006002915091505b9250929050565b600060048111156106e2576106e1610e13565b5b8160048111156106f5576106f4610e13565b5b1415610700576108a0565b6001600481111561071457610713610e13565b5b81600481111561072757610726610e13565b5b1415610768576040517f08c379a000000000000000000000000000000000000000000000000000000000815260040161075f90611105565b60405180910390fd5b6002600481111561077c5761077b610e13565b5b81600481111561078f5761078e610e13565b5b14156107d0576040517f08c379a00000000000000000000000000000000000000000000000000000000081526004016107c790611171565b60405180910390fd5b600360048111156107e4576107e3610e13565b5b8160048111156107f7576107f6610e13565b5b1415610838576040517f08c379a000000000000000000000000000000000000000000000000000000000815260040161082f90611203565b60405180910390fd5b60048081111561084b5761084a610e13565b5b81600481111561085e5761085d610e13565b5b141561089f576040517f08c379a000000000000000000000000000000000000000000000000000000000815260040161089690611295565b60405180910390fd5b5b50565b6000807f7fffffffffffffffffffffffffffffff5d576e7357a4501ddfe92f46681b20a08360001c11156108de5760006003915091506109a7565b601b8560ff16141580156108f65750601c8560ff1614155b156109085760006004915091506109a7565b60006001878787876040516000815260200160405260405161092d94939291906112e0565b6020604051602081039080840390855afa15801561094f573d6000803e3d6000fd5b505050602060405103519050600073ffffffffffffffffffffffffffffffffffffffff168173ffffffffffffffffffffffffffffffffffffffff16141561099e576000600192509250506109a7565b80600092509250505b94509492505050565b6000806000807f7fffffffffffffffffffffffffffffffffffffffffffffffffffffffffffffff85169150601b8560ff1c0190506109f0878288856108a3565b935093505050935093915050565b600080fd5b600080fd5b600073ffffffffffffffffffffffffffffffffffffffff82169050919050565b6000610a3382610a08565b9050919050565b610a4381610a28565b8114610a4e57600080fd5b50565b600081359050610a6081610a3a565b92915050565b600060208284031215610a7c57610a7b6109fe565b5b6000610a8a84828501610a51565b91505092915050565b6000819050919050565b610aa681610a93565b82525050565b6000602082019050610ac16000830184610a9d565b92915050565b610ad081610a93565b8114610adb57600080fd5b50565b600081359050610aed81610ac7565b92915050565b60008060408385031215610b0a57610b096109fe565b5b6000610b1885828601610a51565b9250506020610b2985828601610ade565b9150509250929050565b60008115159050919050565b610b4881610b33565b82525050565b6000602082019050610b636000830184610b3f565b92915050565b600080fd5b600080fd5b600080fd5b60008083601f840112610b8e57610b8d610b69565b5b8235905067ffffffffffffffff811115610bab57610baa610b6e565b5b602083019150836001820283011115610bc757610bc6610b73565b5b9250929050565b60008060008060608587031215610be857610be76109fe565b5b6000610bf687828801610a51565b9450506020610c0787828801610ade565b935050604085013567ffffffffffffffff811115610c2857610c27610a03565b5b610c3487828801610b78565b925092505092959194509250565b60008060008060008060a08789031215610c5f57610c5e6109fe565b5b6000610c6d89828a01610a51565b9650506020610c7e89828a01610a51565b9550506040610c8f89828a01610ade565b9450506060610ca089828a01610ade565b935050608087013567ffffffffffffffff811115610cc157610cc0610a03565b5b610ccd89828a01610b78565b92509250509295509295509295565b6000819050919050565b6000610d01610cfc610cf784610a08565b610cdc565b610a08565b9050919050565b6000610d1382610ce6565b9050919050565b6000610d2582610d08565b9050919050565b610d3581610d1a565b82525050565b6000602082019050610d506000830184610d2c565b92915050565b7f4e487b7100000000000000000000000000000000000000000000000000000000600052601160045260246000fd5b6000610d9082610a93565b9150610d9b83610a93565b9250827fffffffffffffffffffffffffffffffffffffffffffffffffffffffffffffffff03821115610dd057610dcf610d56565b5b828201905092915050565b610de481610a28565b82525050565b6000604082019050610dff6000830185610ddb565b610e0c6020830184610a9d565b9392505050565b7f4e487b7100000000000000000000000000000000000000000000000000000000600052602160045260246000fd5b600082825260208201905092915050565b82818337600083830152505050565b6000601f19601f8301169050919050565b6000610e7f8385610e42565b9350610e8c838584610e53565b610e9583610e62565b840190509392505050565b6000608082019050610eb56000830188610ddb565b610ec26020830187610a9d565b610ecf6040830186610a9d565b8181036060830152610ee2818486610e73565b90509695505050505050565b60008160601b9050919050565b6000610f0682610eee565b9050919050565b6000610f1882610efb565b9050919050565b610f30610f2b82610a28565b610f0d565b82525050565b6000819050919050565b610f51610f4c82610a93565b610f36565b82525050565b6000610f638286610f1f565b601482019150610f738285610f40565b602082019150610f838284610f40565b602082019150819050949350505050565b600082825260208201905092915050565b7f496e636f7272656374205369676e617475726500000000000000000000000000600082015250565b6000610fdb601383610f94565b9150610fe682610fa5565b602082019050919050565b6000602082019050818103600083015261100a81610fce565b9050919050565b600081905092915050565b7f19457468657265756d205369676e6564204d6573736167653a0a333200000000600082015250565b6000611052601c83611011565b915061105d8261101c565b601c82019050919050565b6000819050919050565b6000819050919050565b61108d61108882611068565b611072565b82525050565b600061109e82611045565b91506110aa828461107c565b60208201915081905092915050565b7f45434453413a20696e76616c6964207369676e61747572650000000000000000600082015250565b60006110ef601883610f94565b91506110fa826110b9565b602082019050919050565b6000602082019050818103600083015261111e816110e2565b9050919050565b7f45434453413a20696e76616c6964207369676e6174757265206c656e67746800600082015250565b600061115b601f83610f94565b915061116682611125565b602082019050919050565b6000602082019050818103600083015261118a8161114e565b9050919050565b7f45434453413a20696e76616c6964207369676e6174757265202773272076616c60008201527f7565000000000000000000000000000000000000000000000000000000000000602082015250565b60006111ed602283610f94565b91506111f882611191565b604082019050919050565b6000602082019050818103600083015261121c816111e0565b9050919050565b7f45434453413a20696e76616c6964207369676e6174757265202776272076616c60008201527f7565000000000000000000000000000000000000000000000000000000000000602082015250565b600061127f602283610f94565b915061128a82611223565b604082019050919050565b600060208201905081810360008301526112ae81611272565b9050919050565b6112be81611068565b82525050565b600060ff82169050919050565b6112da816112c4565b82525050565b60006080820190506112f560008301876112b5565b61130260208301866112d1565b61130f60408301856112b5565b61131c60608301846112b5565b9594505050505056fea264697066735822122025fee1e12f90620e59f1909cf4d3f712ead21c0adb507aa673eba93e7221bda264736f6c63430008090033",
  "immutableReferences": {},
  "source": "// SPDX-License-Identifier: MIT\r\npragma solidity ^0.8.0;\r\n\r\nimport \"./Bridge.sol\";\r\n\r\ncontract BSCBridge is Bridge {\r\n    constructor(address _token) Bridge(_token) {}\r\n}\r\n",
  "sourcePath": "C:\\Users\\Justin Acevero\\DAPP U\\Weekly Video Projects\\Token Bridge\\token_bridge\\src\\contracts\\BSCBridge.sol",
  "compiler": {
    "name": "solc",
    "version": "0.8.9+commit.e5eed63a.Emscripten.clang"
  },
  "schemaVersion": "3.4.4",
  "updatedAt": "2022-01-14T14:50:00.093Z",
  "networkType": "ethereum",
  "devdoc": {
    "kind": "dev",
    "methods": {},
    "version": 1
  },
  "userdoc": {
    "kind": "user",
    "methods": {},
    "version": 1
  }
}