{
  "_format": "hh-sol-artifact-1",
  "contractName": "IndexFund",
  "sourceName": "src/contracts/IndexFund.sol",
  "abi": [
    {
      "inputs": [],
      "stateMutability": "nonpayable",
      "type": "constructor"
    },
    {
      "inputs": [
        {
          "internalType": "address",
          "name": "user",
          "type": "address"
        }
      ],
      "name": "balanceOf",
      "outputs": [
        {
          "internalType": "uint256",
          "name": "",
          "type": "uint256"
        }
      ],
      "stateMutability": "view",
      "type": "function"
    },
    {
      "inputs": [
        {
          "internalType": "address",
          "name": "",
          "type": "address"
        }
      ],
      "name": "balances",
      "outputs": [
        {
          "internalType": "uint256",
          "name": "",
          "type": "uint256"
        }
      ],
      "stateMutability": "view",
      "type": "function"
    },
    {
      "inputs": [
        {
          "internalType": "uint256",
          "name": "amount",
          "type": "uint256"
        }
      ],
      "name": "buyToken",
      "outputs": [],
      "stateMutability": "payable",
      "type": "function"
    },
    {
      "inputs": [],
      "name": "calculatePricePerToken",
      "outputs": [],
      "stateMutability": "nonpayable",
      "type": "function"
    },
    {
      "inputs": [],
      "name": "compPrice",
      "outputs": [
        {
          "internalType": "int256",
          "name": "",
          "type": "int256"
        }
      ],
      "stateMutability": "view",
      "type": "function"
    },
    {
      "inputs": [],
      "name": "compPriceAggregator",
      "outputs": [
        {
          "internalType": "contract AggregatorV3Interface",
          "name": "",
          "type": "address"
        }
      ],
      "stateMutability": "view",
      "type": "function"
    },
    {
      "inputs": [],
      "name": "defiIncreased",
      "outputs": [],
      "stateMutability": "nonpayable",
      "type": "function"
    },
    {
      "inputs": [],
      "name": "getBalance",
      "outputs": [
        {
          "internalType": "uint256",
          "name": "",
          "type": "uint256"
        }
      ],
      "stateMutability": "view",
      "type": "function"
    },
    {
      "inputs": [],
      "name": "getPricesOfAllCoins",
      "outputs": [],
      "stateMutability": "nonpayable",
      "type": "function"
    },
    {
      "inputs": [],
      "name": "kncPrice",
      "outputs": [
        {
          "internalType": "int256",
          "name": "",
          "type": "int256"
        }
      ],
      "stateMutability": "view",
      "type": "function"
    },
    {
      "inputs": [],
      "name": "kncPriceAggregator",
      "outputs": [
        {
          "internalType": "contract AggregatorV3Interface",
          "name": "",
          "type": "address"
        }
      ],
      "stateMutability": "view",
      "type": "function"
    },
    {
      "inputs": [],
      "name": "mkrPrice",
      "outputs": [
        {
          "internalType": "int256",
          "name": "",
          "type": "int256"
        }
      ],
      "stateMutability": "view",
      "type": "function"
    },
    {
      "inputs": [],
      "name": "mkrPriceAggregator",
      "outputs": [
        {
          "internalType": "contract AggregatorV3Interface",
          "name": "",
          "type": "address"
        }
      ],
      "stateMutability": "view",
      "type": "function"
    },
    {
      "inputs": [],
      "name": "pricePerToken",
      "outputs": [
        {
          "internalType": "uint256",
          "name": "",
          "type": "uint256"
        }
      ],
      "stateMutability": "view",
      "type": "function"
    },
    {
      "inputs": [],
      "name": "redeemToken",
      "outputs": [],
      "stateMutability": "nonpayable",
      "type": "function"
    },
    {
      "inputs": [],
      "name": "snxPrice",
      "outputs": [
        {
          "internalType": "int256",
          "name": "",
          "type": "int256"
        }
      ],
      "stateMutability": "view",
      "type": "function"
    },
    {
      "inputs": [],
      "name": "snxPriceAggregator",
      "outputs": [
        {
          "internalType": "contract AggregatorV3Interface",
          "name": "",
          "type": "address"
        }
      ],
      "stateMutability": "view",
      "type": "function"
    },
    {
      "inputs": [],
      "name": "uniPrice",
      "outputs": [
        {
          "internalType": "int256",
          "name": "",
          "type": "int256"
        }
      ],
      "stateMutability": "view",
      "type": "function"
    },
    {
      "inputs": [],
      "name": "uniPriceAggregator",
      "outputs": [
        {
          "internalType": "contract AggregatorV3Interface",
          "name": "",
          "type": "address"
        }
      ],
      "stateMutability": "view",
      "type": "function"
    },
    {
      "stateMutability": "payable",
      "type": "receive"
    }
  ],
  "bytecode": "0x608060405273d6aa3d25116d8da79ea0246c4826eb951872e02e600160006101000a81548173ffffffffffffffffffffffffffffffffffffffff021916908373ffffffffffffffffffffffffffffffffffffffff160217905550731b39ee86ec5979ba5c322b826b3ecb8c79991699600260006101000a81548173ffffffffffffffffffffffffffffffffffffffff021916908373ffffffffffffffffffffffffffffffffffffffff1602179055507379291a9d692df95334b1a0b3b4ae6bc606782f8c600360006101000a81548173ffffffffffffffffffffffffffffffffffffffff021916908373ffffffffffffffffffffffffffffffffffffffff1602179055507324551a8fb2a7211a25a17b1481f043a8a8adc7f2600460006101000a81548173ffffffffffffffffffffffffffffffffffffffff021916908373ffffffffffffffffffffffffffffffffffffffff16021790555073656c0544ef4c98a6a98491833a89204abb045d6b600560006101000a81548173ffffffffffffffffffffffffffffffffffffffff021916908373ffffffffffffffffffffffffffffffffffffffff160217905550348015620001ba57600080fd5b50620001cb620001d160201b60201c565b62000929565b620001e16200027060201b60201c565b6064600854620001f291906200075b565b61012c600a546200020491906200075b565b600a6007546200021591906200075b565b60016009546200022691906200075b565b6101f46006546200023891906200075b565b620002449190620006bd565b620002509190620006bd565b6200025c9190620006bd565b620002689190620006bd565b600b81905550565b6000600160009054906101000a900473ffffffffffffffffffffffffffffffffffffffff1673ffffffffffffffffffffffffffffffffffffffff1663feaf968c6040518163ffffffff1660e01b815260040160a06040518083038186803b158015620002db57600080fd5b505afa158015620002f0573d6000803e3d6000fd5b505050506040513d601f19601f820116820180604052508101906200031691906200063b565b5050509150506000600260009054906101000a900473ffffffffffffffffffffffffffffffffffffffff1673ffffffffffffffffffffffffffffffffffffffff1663feaf968c6040518163ffffffff1660e01b815260040160a06040518083038186803b1580156200038757600080fd5b505afa1580156200039c573d6000803e3d6000fd5b505050506040513d601f19601f82011682018060405250810190620003c291906200063b565b5050509150506000600360009054906101000a900473ffffffffffffffffffffffffffffffffffffffff1673ffffffffffffffffffffffffffffffffffffffff1663feaf968c6040518163ffffffff1660e01b815260040160a06040518083038186803b1580156200043357600080fd5b505afa15801562000448573d6000803e3d6000fd5b505050506040513d601f19601f820116820180604052508101906200046e91906200063b565b5050509150506000600460009054906101000a900473ffffffffffffffffffffffffffffffffffffffff1673ffffffffffffffffffffffffffffffffffffffff1663feaf968c6040518163ffffffff1660e01b815260040160a06040518083038186803b158015620004df57600080fd5b505afa158015620004f4573d6000803e3d6000fd5b505050506040513d601f19601f820116820180604052508101906200051a91906200063b565b5050509150506000600560009054906101000a900473ffffffffffffffffffffffffffffffffffffffff1673ffffffffffffffffffffffffffffffffffffffff1663feaf968c6040518163ffffffff1660e01b815260040160a06040518083038186803b1580156200058b57600080fd5b505afa158015620005a0573d6000803e3d6000fd5b505050506040513d601f19601f82011682018060405250810190620005c691906200063b565b5050509150508460068190555083600781905550826008819055508160098190555080600a819055505050505050565b6000815190506200060781620008db565b92915050565b6000815190506200061e81620008f5565b92915050565b60008151905062000635816200090f565b92915050565b600080600080600060a086880312156200065457600080fd5b6000620006648882890162000624565b95505060206200067788828901620005f6565b94505060406200068a888289016200060d565b93505060606200069d888289016200060d565b9250506080620006b08882890162000624565b9150509295509295909350565b6000620006ca8262000882565b9150620006d78362000882565b9250817f7fffffffffffffffffffffffffffffffffffffffffffffffffffffffffffffff03831360008312151615620007155762000714620008ac565b5b817f800000000000000000000000000000000000000000000000000000000000000003831260008312161562000750576200074f620008ac565b5b828201905092915050565b6000620007688262000882565b9150620007758362000882565b9250827f7fffffffffffffffffffffffffffffffffffffffffffffffffffffffffffffff0482116000841360008413161615620007b757620007b6620008ac565b5b817f80000000000000000000000000000000000000000000000000000000000000000583126000841260008413161615620007f757620007f6620008ac565b5b827f80000000000000000000000000000000000000000000000000000000000000000582126000841360008412161615620008375762000836620008ac565b5b827f7fffffffffffffffffffffffffffffffffffffffffffffffffffffffffffffff0582126000841260008412161615620008775762000876620008ac565b5b828202905092915050565b6000819050919050565b6000819050919050565b600069ffffffffffffffffffff82169050919050565b7f4e487b7100000000000000000000000000000000000000000000000000000000600052601160045260246000fd5b620008e68162000882565b8114620008f257600080fd5b50565b62000900816200088c565b81146200090c57600080fd5b50565b6200091a8162000896565b81146200092657600080fd5b50565b6110c780620009396000396000f3fe6080604052600436106101185760003560e01c8063683d8009116100a0578063da9cb76811610064578063da9cb7681461036b578063e18ff1a014610396578063ead6f87c146103ad578063f2dfd2d7146103c4578063ffbfefec146103ef5761011f565b8063683d80091461028257806370a08231146102ad5780637b1b1de6146102ea578063a1c91b2614610315578063b3b60b7e146103405761011f565b80632f310bad116100e75780632f310bad146101d3578063409e89ce146101ea57806349b498ed146102015780635b2c29181461022c5780635ba9e017146102575761011f565b806312065fe01461012457806316830e4a1461014f57806327e235e31461017a5780632d296bf1146101b75761011f565b3661011f57005b600080fd5b34801561013057600080fd5b5061013961041a565b6040516101469190610cd6565b60405180910390f35b34801561015b57600080fd5b50610164610422565b6040516101719190610c80565b60405180910390f35b34801561018657600080fd5b506101a1600480360381019061019c9190610b67565b610448565b6040516101ae9190610cd6565b60405180910390f35b6101d160048036038101906101cc9190610b90565b610460565b005b3480156101df57600080fd5b506101e8610508565b005b3480156101f657600080fd5b506101ff6105ec565b005b34801561020d57600080fd5b50610216610671565b6040516102239190610c80565b60405180910390f35b34801561023857600080fd5b50610241610697565b60405161024e9190610c9b565b60405180910390f35b34801561026357600080fd5b5061026c61069d565b6040516102799190610c80565b60405180910390f35b34801561028e57600080fd5b506102976106c3565b6040516102a49190610c9b565b60405180910390f35b3480156102b957600080fd5b506102d460048036038101906102cf9190610b67565b6106c9565b6040516102e19190610cd6565b60405180910390f35b3480156102f657600080fd5b506102ff610711565b60405161030c9190610cd6565b60405180910390f35b34801561032157600080fd5b5061032a610717565b6040516103379190610c80565b60405180910390f35b34801561034c57600080fd5b5061035561073d565b6040516103629190610c9b565b60405180910390f35b34801561037757600080fd5b50610380610743565b60405161038d9190610c9b565b60405180910390f35b3480156103a257600080fd5b506103ab610749565b005b3480156103b957600080fd5b506103c2610760565b005b3480156103d057600080fd5b506103d9610ad2565b6040516103e69190610c80565b60405180910390f35b3480156103fb57600080fd5b50610404610af8565b6040516104119190610c9b565b60405180910390f35b600047905090565b600260009054906101000a900473ffffffffffffffffffffffffffffffffffffffff1681565b60006020528060005260406000206000915090505481565b600b548161046e9190610f03565b3410156104b0576040517f08c379a00000000000000000000000000000000000000000000000000000000081526004016104a790610cb6565b60405180910390fd5b806000803373ffffffffffffffffffffffffffffffffffffffff1673ffffffffffffffffffffffffffffffffffffffff16815260200190815260200160002060008282546104fe9190610d96565b9250508190555050565b60008060003373ffffffffffffffffffffffffffffffffffffffff1673ffffffffffffffffffffffffffffffffffffffff1681526020019081526020016000205490506000600b548261055b9190610f03565b905060008060003373ffffffffffffffffffffffffffffffffffffffff1673ffffffffffffffffffffffffffffffffffffffff168152602001908152602001600020819055503373ffffffffffffffffffffffffffffffffffffffff166108fc829081150290604051600060405180830381858888f193505050501580156105e7573d6000803e3d6000fd5b505050565b6105f4610760565b60646008546106039190610dec565b61012c600a546106139190610dec565b600a6007546106229190610dec565b60016009546106319190610dec565b6101f46006546106419190610dec565b61064b9190610d02565b6106559190610d02565b61065f9190610d02565b6106699190610d02565b600b81905550565b600160009054906101000a900473ffffffffffffffffffffffffffffffffffffffff1681565b60085481565b600560009054906101000a900473ffffffffffffffffffffffffffffffffffffffff1681565b60065481565b60008060008373ffffffffffffffffffffffffffffffffffffffff1673ffffffffffffffffffffffffffffffffffffffff168152602001908152602001600020549050919050565b600b5481565b600360009054906101000a900473ffffffffffffffffffffffffffffffffffffffff1681565b60075481565b60095481565b6002600b546107589190610f03565b600b81905550565b6000600160009054906101000a900473ffffffffffffffffffffffffffffffffffffffff1673ffffffffffffffffffffffffffffffffffffffff1663feaf968c6040518163ffffffff1660e01b815260040160a06040518083038186803b1580156107ca57600080fd5b505afa1580156107de573d6000803e3d6000fd5b505050506040513d601f19601f820116820180604052508101906108029190610bb9565b5050509150506000600260009054906101000a900473ffffffffffffffffffffffffffffffffffffffff1673ffffffffffffffffffffffffffffffffffffffff1663feaf968c6040518163ffffffff1660e01b815260040160a06040518083038186803b15801561087257600080fd5b505afa158015610886573d6000803e3d6000fd5b505050506040513d601f19601f820116820180604052508101906108aa9190610bb9565b5050509150506000600360009054906101000a900473ffffffffffffffffffffffffffffffffffffffff1673ffffffffffffffffffffffffffffffffffffffff1663feaf968c6040518163ffffffff1660e01b815260040160a06040518083038186803b15801561091a57600080fd5b505afa15801561092e573d6000803e3d6000fd5b505050506040513d601f19601f820116820180604052508101906109529190610bb9565b5050509150506000600460009054906101000a900473ffffffffffffffffffffffffffffffffffffffff1673ffffffffffffffffffffffffffffffffffffffff1663feaf968c6040518163ffffffff1660e01b815260040160a06040518083038186803b1580156109c257600080fd5b505afa1580156109d6573d6000803e3d6000fd5b505050506040513d601f19601f820116820180604052508101906109fa9190610bb9565b5050509150506000600560009054906101000a900473ffffffffffffffffffffffffffffffffffffffff1673ffffffffffffffffffffffffffffffffffffffff1663feaf968c6040518163ffffffff1660e01b815260040160a06040518083038186803b158015610a6a57600080fd5b505afa158015610a7e573d6000803e3d6000fd5b505050506040513d601f19601f82011682018060405250810190610aa29190610bb9565b5050509150508460068190555083600781905550826008819055508160098190555080600a819055505050505050565b600460009054906101000a900473ffffffffffffffffffffffffffffffffffffffff1681565b600a5481565b600081359050610b0d81611035565b92915050565b600081519050610b228161104c565b92915050565b600081359050610b3781611063565b92915050565b600081519050610b4c81611063565b92915050565b600081519050610b618161107a565b92915050565b600060208284031215610b7957600080fd5b6000610b8784828501610afe565b91505092915050565b600060208284031215610ba257600080fd5b6000610bb084828501610b28565b91505092915050565b600080600080600060a08688031215610bd157600080fd5b6000610bdf88828901610b52565b9550506020610bf088828901610b13565b9450506040610c0188828901610b3d565b9350506060610c1288828901610b3d565b9250506080610c2388828901610b52565b9150509295509295909350565b610c3981610fb9565b82525050565b610c4881610f6f565b82525050565b6000610c5b600e83610cf1565b9150610c668261100c565b602082019050919050565b610c7a81610f99565b82525050565b6000602082019050610c956000830184610c30565b92915050565b6000602082019050610cb06000830184610c3f565b92915050565b60006020820190508181036000830152610ccf81610c4e565b9050919050565b6000602082019050610ceb6000830184610c71565b92915050565b600082825260208201905092915050565b6000610d0d82610f6f565b9150610d1883610f6f565b9250817f7fffffffffffffffffffffffffffffffffffffffffffffffffffffffffffffff03831360008312151615610d5357610d52610fdd565b5b817f8000000000000000000000000000000000000000000000000000000000000000038312600083121615610d8b57610d8a610fdd565b5b828201905092915050565b6000610da182610f99565b9150610dac83610f99565b9250827fffffffffffffffffffffffffffffffffffffffffffffffffffffffffffffffff03821115610de157610de0610fdd565b5b828201905092915050565b6000610df782610f6f565b9150610e0283610f6f565b9250827f7fffffffffffffffffffffffffffffffffffffffffffffffffffffffffffffff0482116000841360008413161615610e4157610e40610fdd565b5b817f80000000000000000000000000000000000000000000000000000000000000000583126000841260008413161615610e7e57610e7d610fdd565b5b827f80000000000000000000000000000000000000000000000000000000000000000582126000841360008412161615610ebb57610eba610fdd565b5b827f7fffffffffffffffffffffffffffffffffffffffffffffffffffffffffffffff0582126000841260008412161615610ef857610ef7610fdd565b5b828202905092915050565b6000610f0e82610f99565b9150610f1983610f99565b9250817fffffffffffffffffffffffffffffffffffffffffffffffffffffffffffffffff0483118215151615610f5257610f51610fdd565b5b828202905092915050565b6000610f6882610f79565b9050919050565b6000819050919050565b600073ffffffffffffffffffffffffffffffffffffffff82169050919050565b6000819050919050565b600069ffffffffffffffffffff82169050919050565b6000610fc482610fcb565b9050919050565b6000610fd682610f79565b9050919050565b7f4e487b7100000000000000000000000000000000000000000000000000000000600052601160045260246000fd5b7f6e6f7420656e6f7567682062726f000000000000000000000000000000000000600082015250565b61103e81610f5d565b811461104957600080fd5b50565b61105581610f6f565b811461106057600080fd5b50565b61106c81610f99565b811461107757600080fd5b50565b61108381610fa3565b811461108e57600080fd5b5056fea2646970667358221220ed86eba0068c06767726186d24799dbb866bf514ccad1231a6ce06de2dc9d35a64736f6c63430008040033",
  "linkReferences": {},
  "deployedLinkReferences": {}
}