{
  "_format": "hh-sol-artifact-1",
  "contractName": "FundMe",
  "sourceName": "contracts/FundMe.sol",
  "abi": [
    {
      "inputs": [
        {
          "internalType": "address",
          "name": "priceFeedAddr",
          "type": "address"
        }
      ],
      "stateMutability": "nonpayable",
      "type": "constructor"
    },
    {
      "inputs": [],
      "name": "FundMe__NotOwner",
      "type": "error"
    },
    {
      "stateMutability": "payable",
      "type": "fallback"
    },
    {
      "inputs": [],
      "name": "MINIMUM_USD",
      "outputs": [
        {
          "internalType": "uint256",
          "name": "",
          "type": "uint256"
        }
      ],
      "stateMutability": "view",
      "type": "function"
    },
    {
      "inputs": [
        {
          "internalType": "address",
          "name": "",
          "type": "address"
        }
      ],
      "name": "addressToAmountFunded",
      "outputs": [
        {
          "internalType": "uint256",
          "name": "",
          "type": "uint256"
        }
      ],
      "stateMutability": "view",
      "type": "function"
    },
    {
      "inputs": [],
      "name": "cheaperWithdrawal",
      "outputs": [],
      "stateMutability": "payable",
      "type": "function"
    },
    {
      "inputs": [],
      "name": "fund",
      "outputs": [],
      "stateMutability": "payable",
      "type": "function"
    },
    {
      "inputs": [
        {
          "internalType": "uint256",
          "name": "",
          "type": "uint256"
        }
      ],
      "name": "funders",
      "outputs": [
        {
          "internalType": "address",
          "name": "",
          "type": "address"
        }
      ],
      "stateMutability": "view",
      "type": "function"
    },
    {
      "inputs": [],
      "name": "owner",
      "outputs": [
        {
          "internalType": "address",
          "name": "",
          "type": "address"
        }
      ],
      "stateMutability": "view",
      "type": "function"
    },
    {
      "inputs": [],
      "name": "priceFeed",
      "outputs": [
        {
          "internalType": "contract AggregatorV3Interface",
          "name": "",
          "type": "address"
        }
      ],
      "stateMutability": "view",
      "type": "function"
    },
    {
      "inputs": [],
      "name": "withdrawal",
      "outputs": [],
      "stateMutability": "payable",
      "type": "function"
    },
    {
      "stateMutability": "payable",
      "type": "receive"
    }
  ],
  "bytecode": "0x60a06040523480156200001157600080fd5b506040516200122f3803806200122f83398181016040528101906200003791906200011d565b3373ffffffffffffffffffffffffffffffffffffffff1660808173ffffffffffffffffffffffffffffffffffffffff168152505080600260006101000a81548173ffffffffffffffffffffffffffffffffffffffff021916908373ffffffffffffffffffffffffffffffffffffffff160217905550506200014f565b600080fd5b600073ffffffffffffffffffffffffffffffffffffffff82169050919050565b6000620000e582620000b8565b9050919050565b620000f781620000d8565b81146200010357600080fd5b50565b6000815190506200011781620000ec565b92915050565b600060208284031215620001365762000135620000b3565b5b6000620001468482850162000106565b91505092915050565b6080516110b6620001796000396000818161046e01528181610567015261058b01526110b66000f3fe60806040526004361061007f5760003560e01c80638da5cb5b1161004e5780638da5cb5b14610135578063b60d428814610160578063d4e932921461016a578063dc0d3dff146101745761008e565b80633e47d6f314610098578063582b1034146100d55780636b69a592146100df578063741bef1a1461010a5761008e565b3661008e5761008c6101b1565b005b6100966101b1565b005b3480156100a457600080fd5b506100bf60048036038101906100ba91906109ee565b6102e3565b6040516100cc9190610a34565b60405180910390f35b6100dd6102fb565b005b3480156100eb57600080fd5b506100f461053a565b6040516101019190610a34565b60405180910390f35b34801561011657600080fd5b5061011f61053f565b60405161012c9190610aae565b60405180910390f35b34801561014157600080fd5b5061014a610565565b6040516101579190610ad8565b60405180910390f35b6101686101b1565b005b610172610589565b005b34801561018057600080fd5b5061019b60048036038101906101969190610b1f565b6107c9565b6040516101a89190610ad8565b60405180910390f35b60326101e8600260009054906101000a900473ffffffffffffffffffffffffffffffffffffffff163461080890919063ffffffff16565b1015610229576040517f08c379a000000000000000000000000000000000000000000000000000000000815260040161022090610ba9565b60405180910390fd5b346000803373ffffffffffffffffffffffffffffffffffffffff1673ffffffffffffffffffffffffffffffffffffffff16815260200190815260200160002060008282546102779190610bf8565b925050819055506001339080600181540180825580915050600190039060005260206000200160009091909190916101000a81548173ffffffffffffffffffffffffffffffffffffffff021916908373ffffffffffffffffffffffffffffffffffffffff160217905550565b60006020528060005260406000206000915090505481565b6000600180548060200260200160405190810160405280929190818152602001828054801561037f57602002820191906000526020600020905b8160009054906101000a900473ffffffffffffffffffffffffffffffffffffffff1673ffffffffffffffffffffffffffffffffffffffff1681526020019060010190808311610335575b5050505050905060005b81518110156104095760008282815181106103a7576103a6610c4e565b5b6020026020010151905060008060008373ffffffffffffffffffffffffffffffffffffffff1673ffffffffffffffffffffffffffffffffffffffff1681526020019081526020016000208190555050808061040190610c7d565b915050610389565b50600067ffffffffffffffff81111561042557610424610cc6565b5b6040519080825280602002602001820160405280156104535781602001602082028036833780820191505090505b50600190805190602001906104699291906108e4565b5060007f000000000000000000000000000000000000000000000000000000000000000073ffffffffffffffffffffffffffffffffffffffff16476040516104b090610d26565b60006040518083038185875af1925050503d80600081146104ed576040519150601f19603f3d011682016040523d82523d6000602084013e6104f2565b606091505b5050905080610536576040517f08c379a000000000000000000000000000000000000000000000000000000000815260040161052d90610d87565b60405180910390fd5b5050565b603281565b600260009054906101000a900473ffffffffffffffffffffffffffffffffffffffff1681565b7f000000000000000000000000000000000000000000000000000000000000000081565b7f000000000000000000000000000000000000000000000000000000000000000073ffffffffffffffffffffffffffffffffffffffff163373ffffffffffffffffffffffffffffffffffffffff161461060e576040517f579610db00000000000000000000000000000000000000000000000000000000815260040160405180910390fd5b60005b6001805490508110156106b95760006001828154811061063457610633610c4e565b5b9060005260206000200160009054906101000a900473ffffffffffffffffffffffffffffffffffffffff16905060008060008373ffffffffffffffffffffffffffffffffffffffff1673ffffffffffffffffffffffffffffffffffffffff168152602001908152602001600020819055505080806106b190610c7d565b915050610611565b50600067ffffffffffffffff8111156106d5576106d4610cc6565b5b6040519080825280602002602001820160405280156107035781602001602082028036833780820191505090505b50600190805190602001906107199291906108e4565b5060003373ffffffffffffffffffffffffffffffffffffffff164760405161074090610d26565b60006040518083038185875af1925050503d806000811461077d576040519150601f19603f3d011682016040523d82523d6000602084013e610782565b606091505b50509050806107c6576040517f08c379a00000000000000000000000000000000000000000000000000000000081526004016107bd90610d87565b60405180910390fd5b50565b600181815481106107d957600080fd5b906000526020600020016000915054906101000a900473ffffffffffffffffffffffffffffffffffffffff1681565b60008061081483610844565b90506000670de0b6b3a7640000858361082d9190610da7565b6108379190610e30565b9050809250505092915050565b6000808273ffffffffffffffffffffffffffffffffffffffff1663feaf968c6040518163ffffffff1660e01b815260040160a06040518083038186803b15801561088d57600080fd5b505afa1580156108a1573d6000803e3d6000fd5b505050506040513d601f19601f820116820180604052508101906108c59190610eee565b5050509150506402540be400816108dc9190610f69565b915050919050565b82805482825590600052602060002090810192821561095d579160200282015b8281111561095c5782518260006101000a81548173ffffffffffffffffffffffffffffffffffffffff021916908373ffffffffffffffffffffffffffffffffffffffff16021790555091602001919060010190610904565b5b50905061096a919061096e565b5090565b5b8082111561098757600081600090555060010161096f565b5090565b600080fd5b600073ffffffffffffffffffffffffffffffffffffffff82169050919050565b60006109bb82610990565b9050919050565b6109cb816109b0565b81146109d657600080fd5b50565b6000813590506109e8816109c2565b92915050565b600060208284031215610a0457610a0361098b565b5b6000610a12848285016109d9565b91505092915050565b6000819050919050565b610a2e81610a1b565b82525050565b6000602082019050610a496000830184610a25565b92915050565b6000819050919050565b6000610a74610a6f610a6a84610990565b610a4f565b610990565b9050919050565b6000610a8682610a59565b9050919050565b6000610a9882610a7b565b9050919050565b610aa881610a8d565b82525050565b6000602082019050610ac36000830184610a9f565b92915050565b610ad2816109b0565b82525050565b6000602082019050610aed6000830184610ac9565b92915050565b610afc81610a1b565b8114610b0757600080fd5b50565b600081359050610b1981610af3565b92915050565b600060208284031215610b3557610b3461098b565b5b6000610b4384828501610b0a565b91505092915050565b600082825260208201905092915050565b7f4d696e696d756d206f66203120657468657220616c6c6f776564000000000000600082015250565b6000610b93601a83610b4c565b9150610b9e82610b5d565b602082019050919050565b60006020820190508181036000830152610bc281610b86565b9050919050565b7f4e487b7100000000000000000000000000000000000000000000000000000000600052601160045260246000fd5b6000610c0382610a1b565b9150610c0e83610a1b565b9250827fffffffffffffffffffffffffffffffffffffffffffffffffffffffffffffffff03821115610c4357610c42610bc9565b5b828201905092915050565b7f4e487b7100000000000000000000000000000000000000000000000000000000600052603260045260246000fd5b6000610c8882610a1b565b91507fffffffffffffffffffffffffffffffffffffffffffffffffffffffffffffffff821415610cbb57610cba610bc9565b5b600182019050919050565b7f4e487b7100000000000000000000000000000000000000000000000000000000600052604160045260246000fd5b600081905092915050565b50565b6000610d10600083610cf5565b9150610d1b82610d00565b600082019050919050565b6000610d3182610d03565b9150819050919050565b7f43616c6c206661696c6564000000000000000000000000000000000000000000600082015250565b6000610d71600b83610b4c565b9150610d7c82610d3b565b602082019050919050565b60006020820190508181036000830152610da081610d64565b9050919050565b6000610db282610a1b565b9150610dbd83610a1b565b9250817fffffffffffffffffffffffffffffffffffffffffffffffffffffffffffffffff0483118215151615610df657610df5610bc9565b5b828202905092915050565b7f4e487b7100000000000000000000000000000000000000000000000000000000600052601260045260246000fd5b6000610e3b82610a1b565b9150610e4683610a1b565b925082610e5657610e55610e01565b5b828204905092915050565b600069ffffffffffffffffffff82169050919050565b610e8081610e61565b8114610e8b57600080fd5b50565b600081519050610e9d81610e77565b92915050565b6000819050919050565b610eb681610ea3565b8114610ec157600080fd5b50565b600081519050610ed381610ead565b92915050565b600081519050610ee881610af3565b92915050565b600080600080600060a08688031215610f0a57610f0961098b565b5b6000610f1888828901610e8e565b9550506020610f2988828901610ec4565b9450506040610f3a88828901610ed9565b9350506060610f4b88828901610ed9565b9250506080610f5c88828901610e8e565b9150509295509295909350565b6000610f7482610ea3565b9150610f7f83610ea3565b9250827f7fffffffffffffffffffffffffffffffffffffffffffffffffffffffffffffff0482116000841360008413161615610fbe57610fbd610bc9565b5b817f80000000000000000000000000000000000000000000000000000000000000000583126000841260008413161615610ffb57610ffa610bc9565b5b827f8000000000000000000000000000000000000000000000000000000000000000058212600084136000841216161561103857611037610bc9565b5b827f7fffffffffffffffffffffffffffffffffffffffffffffffffffffffffffffff058212600084126000841216161561107557611074610bc9565b5b82820290509291505056fea2646970667358221220265b9f0495ab682220acb91637413f52fc4bc7d8776bd60d341d7e643688208164736f6c63430008090033",
  "linkReferences": {},
  "deployedLinkReferences": {}
}