{
  "_format": "hh-sol-artifact-1",
  "contractName": "FundMe",
  "sourceName": "contracts/FundMe.sol",
  "abi": [
    {
      "inputs": [],
      "stateMutability": "nonpayable",
      "type": "constructor"
    },
    {
      "inputs": [],
      "name": "NotOwner",
      "type": "error"
    },
    {
      "stateMutability": "payable",
      "type": "fallback"
    },
    {
      "inputs": [],
      "name": "MINIMUM_USD",
      "outputs": [
        {
          "internalType": "uint256",
          "name": "",
          "type": "uint256"
        }
      ],
      "stateMutability": "view",
      "type": "function"
    },
    {
      "inputs": [
        {
          "internalType": "address",
          "name": "",
          "type": "address"
        }
      ],
      "name": "addressToAmountFunded",
      "outputs": [
        {
          "internalType": "uint256",
          "name": "",
          "type": "uint256"
        }
      ],
      "stateMutability": "view",
      "type": "function"
    },
    {
      "inputs": [],
      "name": "fund",
      "outputs": [],
      "stateMutability": "payable",
      "type": "function"
    },
    {
      "inputs": [
        {
          "internalType": "uint256",
          "name": "",
          "type": "uint256"
        }
      ],
      "name": "funders",
      "outputs": [
        {
          "internalType": "address",
          "name": "",
          "type": "address"
        }
      ],
      "stateMutability": "view",
      "type": "function"
    },
    {
      "inputs": [],
      "name": "owner",
      "outputs": [
        {
          "internalType": "address",
          "name": "",
          "type": "address"
        }
      ],
      "stateMutability": "view",
      "type": "function"
    },
    {
      "inputs": [],
      "name": "withdrawal",
      "outputs": [],
      "stateMutability": "nonpayable",
      "type": "function"
    },
    {
      "stateMutability": "payable",
      "type": "receive"
    }
  ],
  "bytecode": "0x60a060405234801561001057600080fd5b503373ffffffffffffffffffffffffffffffffffffffff1660808173ffffffffffffffffffffffffffffffffffffffff1681525050608051610d736100676000396000818161028801526102ac0152610d736000f3fe6080604052600436106100595760003560e01c80633e47d6f3146100725780636b69a592146100af5780638da5cb5b146100da578063b60d428814610105578063d4e932921461010f578063dc0d3dff1461012657610068565b3661006857610066610163565b005b610070610163565b005b34801561007e57600080fd5b5061009960048036038101906100949190610725565b610269565b6040516100a6919061076b565b60405180910390f35b3480156100bb57600080fd5b506100c4610281565b6040516100d1919061076b565b60405180910390f35b3480156100e657600080fd5b506100ef610286565b6040516100fc9190610795565b60405180910390f35b61010d610163565b005b34801561011b57600080fd5b506101246102aa565b005b34801561013257600080fd5b5061014d600480360381019061014891906107dc565b6104ea565b60405161015a9190610795565b60405180910390f35b603261016e34610529565b10156101af576040517f08c379a00000000000000000000000000000000000000000000000000000000081526004016101a690610866565b60405180910390fd5b346000803373ffffffffffffffffffffffffffffffffffffffff1673ffffffffffffffffffffffffffffffffffffffff16815260200190815260200160002060008282546101fd91906108b5565b925050819055506001339080600181540180825580915050600190039060005260206000200160009091909190916101000a81548173ffffffffffffffffffffffffffffffffffffffff021916908373ffffffffffffffffffffffffffffffffffffffff160217905550565b60006020528060005260406000206000915090505481565b603281565b7f000000000000000000000000000000000000000000000000000000000000000081565b7f000000000000000000000000000000000000000000000000000000000000000073ffffffffffffffffffffffffffffffffffffffff163373ffffffffffffffffffffffffffffffffffffffff161461032f576040517f30cd747100000000000000000000000000000000000000000000000000000000815260040160405180910390fd5b60005b6001805490508110156103da576000600182815481106103555761035461090b565b5b9060005260206000200160009054906101000a900473ffffffffffffffffffffffffffffffffffffffff16905060008060008373ffffffffffffffffffffffffffffffffffffffff1673ffffffffffffffffffffffffffffffffffffffff168152602001908152602001600020819055505080806103d29061093a565b915050610332565b50600067ffffffffffffffff8111156103f6576103f5610983565b5b6040519080825280602002602001820160405280156104245781602001602082028036833780820191505090505b506001908051906020019061043a92919061061b565b5060003373ffffffffffffffffffffffffffffffffffffffff1647604051610461906109e3565b60006040518083038185875af1925050503d806000811461049e576040519150601f19603f3d011682016040523d82523d6000602084013e6104a3565b606091505b50509050806104e7576040517f08c379a00000000000000000000000000000000000000000000000000000000081526004016104de90610a44565b60405180910390fd5b50565b600181815481106104fa57600080fd5b906000526020600020016000915054906101000a900473ffffffffffffffffffffffffffffffffffffffff1681565b600080610534610563565b90506000670de0b6b3a7640000848361054d9190610a64565b6105579190610aed565b90508092505050919050565b60008073d4a33860578de61dbabdc8bfdb98fd742fa7028e905060008173ffffffffffffffffffffffffffffffffffffffff1663feaf968c6040518163ffffffff1660e01b815260040160a06040518083038186803b1580156105c557600080fd5b505afa1580156105d9573d6000803e3d6000fd5b505050506040513d601f19601f820116820180604052508101906105fd9190610bab565b5050509150506402540be400816106149190610c26565b9250505090565b828054828255906000526020600020908101928215610694579160200282015b828111156106935782518260006101000a81548173ffffffffffffffffffffffffffffffffffffffff021916908373ffffffffffffffffffffffffffffffffffffffff1602179055509160200191906001019061063b565b5b5090506106a191906106a5565b5090565b5b808211156106be5760008160009055506001016106a6565b5090565b600080fd5b600073ffffffffffffffffffffffffffffffffffffffff82169050919050565b60006106f2826106c7565b9050919050565b610702816106e7565b811461070d57600080fd5b50565b60008135905061071f816106f9565b92915050565b60006020828403121561073b5761073a6106c2565b5b600061074984828501610710565b91505092915050565b6000819050919050565b61076581610752565b82525050565b6000602082019050610780600083018461075c565b92915050565b61078f816106e7565b82525050565b60006020820190506107aa6000830184610786565b92915050565b6107b981610752565b81146107c457600080fd5b50565b6000813590506107d6816107b0565b92915050565b6000602082840312156107f2576107f16106c2565b5b6000610800848285016107c7565b91505092915050565b600082825260208201905092915050565b7f4d696e696d756d206f66203120657468657220616c6c6f776564000000000000600082015250565b6000610850601a83610809565b915061085b8261081a565b602082019050919050565b6000602082019050818103600083015261087f81610843565b9050919050565b7f4e487b7100000000000000000000000000000000000000000000000000000000600052601160045260246000fd5b60006108c082610752565b91506108cb83610752565b9250827fffffffffffffffffffffffffffffffffffffffffffffffffffffffffffffffff03821115610900576108ff610886565b5b828201905092915050565b7f4e487b7100000000000000000000000000000000000000000000000000000000600052603260045260246000fd5b600061094582610752565b91507fffffffffffffffffffffffffffffffffffffffffffffffffffffffffffffffff82141561097857610977610886565b5b600182019050919050565b7f4e487b7100000000000000000000000000000000000000000000000000000000600052604160045260246000fd5b600081905092915050565b50565b60006109cd6000836109b2565b91506109d8826109bd565b600082019050919050565b60006109ee826109c0565b9150819050919050565b7f43616c6c206661696c6564000000000000000000000000000000000000000000600082015250565b6000610a2e600b83610809565b9150610a39826109f8565b602082019050919050565b60006020820190508181036000830152610a5d81610a21565b9050919050565b6000610a6f82610752565b9150610a7a83610752565b9250817fffffffffffffffffffffffffffffffffffffffffffffffffffffffffffffffff0483118215151615610ab357610ab2610886565b5b828202905092915050565b7f4e487b7100000000000000000000000000000000000000000000000000000000600052601260045260246000fd5b6000610af882610752565b9150610b0383610752565b925082610b1357610b12610abe565b5b828204905092915050565b600069ffffffffffffffffffff82169050919050565b610b3d81610b1e565b8114610b4857600080fd5b50565b600081519050610b5a81610b34565b92915050565b6000819050919050565b610b7381610b60565b8114610b7e57600080fd5b50565b600081519050610b9081610b6a565b92915050565b600081519050610ba5816107b0565b92915050565b600080600080600060a08688031215610bc757610bc66106c2565b5b6000610bd588828901610b4b565b9550506020610be688828901610b81565b9450506040610bf788828901610b96565b9350506060610c0888828901610b96565b9250506080610c1988828901610b4b565b9150509295509295909350565b6000610c3182610b60565b9150610c3c83610b60565b9250827f7fffffffffffffffffffffffffffffffffffffffffffffffffffffffffffffff0482116000841360008413161615610c7b57610c7a610886565b5b817f80000000000000000000000000000000000000000000000000000000000000000583126000841260008413161615610cb857610cb7610886565b5b827f80000000000000000000000000000000000000000000000000000000000000000582126000841360008412161615610cf557610cf4610886565b5b827f7fffffffffffffffffffffffffffffffffffffffffffffffffffffffffffffff0582126000841260008412161615610d3257610d31610886565b5b82820290509291505056fea2646970667358221220df422d8b20025bcff402e6c2a7b7da2b9ffeb56ee0ec5db1bd6ae2f79528bea364736f6c63430008090033",
  "linkReferences": {},
  "deployedLinkReferences": {}
}