{
  "_format": "hh-sol-artifact-1",
  "contractName": "FundMe",
  "sourceName": "contracts/FundMe.sol",
  "abi": [
    {
      "inputs": [
        {
          "internalType": "address",
          "name": "priceFeedAddr",
          "type": "address"
        }
      ],
      "stateMutability": "nonpayable",
      "type": "constructor"
    },
    {
      "inputs": [],
      "name": "FundMe__NotOwner",
      "type": "error"
    },
    {
      "stateMutability": "payable",
      "type": "fallback"
    },
    {
      "inputs": [],
      "name": "MINIMUM_USD",
      "outputs": [
        {
          "internalType": "uint256",
          "name": "",
          "type": "uint256"
        }
      ],
      "stateMutability": "view",
      "type": "function"
    },
    {
      "inputs": [
        {
          "internalType": "address",
          "name": "",
          "type": "address"
        }
      ],
      "name": "addressToAmountFunded",
      "outputs": [
        {
          "internalType": "uint256",
          "name": "",
          "type": "uint256"
        }
      ],
      "stateMutability": "view",
      "type": "function"
    },
    {
      "inputs": [],
      "name": "fund",
      "outputs": [],
      "stateMutability": "payable",
      "type": "function"
    },
    {
      "inputs": [
        {
          "internalType": "uint256",
          "name": "",
          "type": "uint256"
        }
      ],
      "name": "funders",
      "outputs": [
        {
          "internalType": "address",
          "name": "",
          "type": "address"
        }
      ],
      "stateMutability": "view",
      "type": "function"
    },
    {
      "inputs": [],
      "name": "owner",
      "outputs": [
        {
          "internalType": "address",
          "name": "",
          "type": "address"
        }
      ],
      "stateMutability": "view",
      "type": "function"
    },
    {
      "inputs": [],
      "name": "priceFeed",
      "outputs": [
        {
          "internalType": "contract AggregatorV3Interface",
          "name": "",
          "type": "address"
        }
      ],
      "stateMutability": "view",
      "type": "function"
    },
    {
      "inputs": [],
      "name": "withdrawal",
      "outputs": [],
      "stateMutability": "nonpayable",
      "type": "function"
    },
    {
      "stateMutability": "payable",
      "type": "receive"
    }
  ],
  "bytecode": "0x60a060405234801561001057600080fd5b5060405162000fd138038062000fd183398181016040528101906100349190610112565b3373ffffffffffffffffffffffffffffffffffffffff1660808173ffffffffffffffffffffffffffffffffffffffff168152505080600260006101000a81548173ffffffffffffffffffffffffffffffffffffffff021916908373ffffffffffffffffffffffffffffffffffffffff1602179055505061013f565b600080fd5b600073ffffffffffffffffffffffffffffffffffffffff82169050919050565b60006100df826100b4565b9050919050565b6100ef816100d4565b81146100fa57600080fd5b50565b60008151905061010c816100e6565b92915050565b600060208284031215610128576101276100af565b5b6000610136848285016100fd565b91505092915050565b608051610e6f620001626000396000818161032001526103440152610e6f6000f3fe6080604052600436106100745760003560e01c80638da5cb5b1161004e5780638da5cb5b14610120578063b60d42881461014b578063d4e9329214610155578063dc0d3dff1461016c57610083565b80633e47d6f31461008d5780636b69a592146100ca578063741bef1a146100f557610083565b36610083576100816101a9565b005b61008b6101a9565b005b34801561009957600080fd5b506100b460048036038101906100af91906107a7565b6102db565b6040516100c191906107ed565b60405180910390f35b3480156100d657600080fd5b506100df6102f3565b6040516100ec91906107ed565b60405180910390f35b34801561010157600080fd5b5061010a6102f8565b6040516101179190610867565b60405180910390f35b34801561012c57600080fd5b5061013561031e565b6040516101429190610891565b60405180910390f35b6101536101a9565b005b34801561016157600080fd5b5061016a610342565b005b34801561017857600080fd5b50610193600480360381019061018e91906108d8565b610582565b6040516101a09190610891565b60405180910390f35b60326101e0600260009054906101000a900473ffffffffffffffffffffffffffffffffffffffff16346105c190919063ffffffff16565b1015610221576040517f08c379a000000000000000000000000000000000000000000000000000000000815260040161021890610962565b60405180910390fd5b346000803373ffffffffffffffffffffffffffffffffffffffff1673ffffffffffffffffffffffffffffffffffffffff168152602001908152602001600020600082825461026f91906109b1565b925050819055506001339080600181540180825580915050600190039060005260206000200160009091909190916101000a81548173ffffffffffffffffffffffffffffffffffffffff021916908373ffffffffffffffffffffffffffffffffffffffff160217905550565b60006020528060005260406000206000915090505481565b603281565b600260009054906101000a900473ffffffffffffffffffffffffffffffffffffffff1681565b7f000000000000000000000000000000000000000000000000000000000000000081565b7f000000000000000000000000000000000000000000000000000000000000000073ffffffffffffffffffffffffffffffffffffffff163373ffffffffffffffffffffffffffffffffffffffff16146103c7576040517f579610db00000000000000000000000000000000000000000000000000000000815260040160405180910390fd5b60005b600180549050811015610472576000600182815481106103ed576103ec610a07565b5b9060005260206000200160009054906101000a900473ffffffffffffffffffffffffffffffffffffffff16905060008060008373ffffffffffffffffffffffffffffffffffffffff1673ffffffffffffffffffffffffffffffffffffffff1681526020019081526020016000208190555050808061046a90610a36565b9150506103ca565b50600067ffffffffffffffff81111561048e5761048d610a7f565b5b6040519080825280602002602001820160405280156104bc5781602001602082028036833780820191505090505b50600190805190602001906104d292919061069d565b5060003373ffffffffffffffffffffffffffffffffffffffff16476040516104f990610adf565b60006040518083038185875af1925050503d8060008114610536576040519150601f19603f3d011682016040523d82523d6000602084013e61053b565b606091505b505090508061057f576040517f08c379a000000000000000000000000000000000000000000000000000000000815260040161057690610b40565b60405180910390fd5b50565b6001818154811061059257600080fd5b906000526020600020016000915054906101000a900473ffffffffffffffffffffffffffffffffffffffff1681565b6000806105cd836105fd565b90506000670de0b6b3a764000085836105e69190610b60565b6105f09190610be9565b9050809250505092915050565b6000808273ffffffffffffffffffffffffffffffffffffffff1663feaf968c6040518163ffffffff1660e01b815260040160a06040518083038186803b15801561064657600080fd5b505afa15801561065a573d6000803e3d6000fd5b505050506040513d601f19601f8201168201806040525081019061067e9190610ca7565b5050509150506402540be400816106959190610d22565b915050919050565b828054828255906000526020600020908101928215610716579160200282015b828111156107155782518260006101000a81548173ffffffffffffffffffffffffffffffffffffffff021916908373ffffffffffffffffffffffffffffffffffffffff160217905550916020019190600101906106bd565b5b5090506107239190610727565b5090565b5b80821115610740576000816000905550600101610728565b5090565b600080fd5b600073ffffffffffffffffffffffffffffffffffffffff82169050919050565b600061077482610749565b9050919050565b61078481610769565b811461078f57600080fd5b50565b6000813590506107a18161077b565b92915050565b6000602082840312156107bd576107bc610744565b5b60006107cb84828501610792565b91505092915050565b6000819050919050565b6107e7816107d4565b82525050565b600060208201905061080260008301846107de565b92915050565b6000819050919050565b600061082d61082861082384610749565b610808565b610749565b9050919050565b600061083f82610812565b9050919050565b600061085182610834565b9050919050565b61086181610846565b82525050565b600060208201905061087c6000830184610858565b92915050565b61088b81610769565b82525050565b60006020820190506108a66000830184610882565b92915050565b6108b5816107d4565b81146108c057600080fd5b50565b6000813590506108d2816108ac565b92915050565b6000602082840312156108ee576108ed610744565b5b60006108fc848285016108c3565b91505092915050565b600082825260208201905092915050565b7f4d696e696d756d206f66203120657468657220616c6c6f776564000000000000600082015250565b600061094c601a83610905565b915061095782610916565b602082019050919050565b6000602082019050818103600083015261097b8161093f565b9050919050565b7f4e487b7100000000000000000000000000000000000000000000000000000000600052601160045260246000fd5b60006109bc826107d4565b91506109c7836107d4565b9250827fffffffffffffffffffffffffffffffffffffffffffffffffffffffffffffffff038211156109fc576109fb610982565b5b828201905092915050565b7f4e487b7100000000000000000000000000000000000000000000000000000000600052603260045260246000fd5b6000610a41826107d4565b91507fffffffffffffffffffffffffffffffffffffffffffffffffffffffffffffffff821415610a7457610a73610982565b5b600182019050919050565b7f4e487b7100000000000000000000000000000000000000000000000000000000600052604160045260246000fd5b600081905092915050565b50565b6000610ac9600083610aae565b9150610ad482610ab9565b600082019050919050565b6000610aea82610abc565b9150819050919050565b7f43616c6c206661696c6564000000000000000000000000000000000000000000600082015250565b6000610b2a600b83610905565b9150610b3582610af4565b602082019050919050565b60006020820190508181036000830152610b5981610b1d565b9050919050565b6000610b6b826107d4565b9150610b76836107d4565b9250817fffffffffffffffffffffffffffffffffffffffffffffffffffffffffffffffff0483118215151615610baf57610bae610982565b5b828202905092915050565b7f4e487b7100000000000000000000000000000000000000000000000000000000600052601260045260246000fd5b6000610bf4826107d4565b9150610bff836107d4565b925082610c0f57610c0e610bba565b5b828204905092915050565b600069ffffffffffffffffffff82169050919050565b610c3981610c1a565b8114610c4457600080fd5b50565b600081519050610c5681610c30565b92915050565b6000819050919050565b610c6f81610c5c565b8114610c7a57600080fd5b50565b600081519050610c8c81610c66565b92915050565b600081519050610ca1816108ac565b92915050565b600080600080600060a08688031215610cc357610cc2610744565b5b6000610cd188828901610c47565b9550506020610ce288828901610c7d565b9450506040610cf388828901610c92565b9350506060610d0488828901610c92565b9250506080610d1588828901610c47565b9150509295509295909350565b6000610d2d82610c5c565b9150610d3883610c5c565b9250827f7fffffffffffffffffffffffffffffffffffffffffffffffffffffffffffffff0482116000841360008413161615610d7757610d76610982565b5b817f80000000000000000000000000000000000000000000000000000000000000000583126000841260008413161615610db457610db3610982565b5b827f80000000000000000000000000000000000000000000000000000000000000000582126000841360008412161615610df157610df0610982565b5b827f7fffffffffffffffffffffffffffffffffffffffffffffffffffffffffffffff0582126000841260008412161615610e2e57610e2d610982565b5b82820290509291505056fea2646970667358221220a65a766784677d1b5b22acb1af67868b5a6f8a831929e0c6940aea9700719c5164736f6c63430008090033",
  "linkReferences": {},
  "deployedLinkReferences": {}
}